:020000040000FA
:020000000D28C9
:10000800DE00030E8312B7000408B8000A08B9001E
:10001800DC290E285A22C1005B22C2005C22C300E0
:100028005D22C4005E22C5005F22C6008313203013
:10003800840034305222830121283C308316850005
:10004800831285012430A4000030A5002430A600C6
:100058000030A7002430A0000030A1002430A20006
:100068000030A3008316811281110110811001153F
:1000780001178B170B168B10412883120508BA003D
:10008800BB013A08C7003B08C8004808BB0047083E
:10009800BA003B0DBB0CBA0C3B0DBB0CBA0C3B0DAC
:1000A800BB0CBA0C3A08C7003B08C8000730470623
:1000B800C70000304806C80007304705C7000030B1
:1000C8004805C8004808803ADF0080305F02031DF9
:1000D8006F28043047020318722873287B2883127C
:1000E8002E082F04031979287A280A297B28033037
:1000F80083124705AA0000304805AB002E082F04DC
:10010800031D8728882893282B08AD002A08AC00EF
:10011800A801A9010130AE000030AF0093282E03DA
:100128002F04031D98289928BA284808803ADF0028
:1001380080305F02031DA228043047020318A52857
:10014800A628BA2883122B08BB002A08BA00031075
:10015800BA0DBB0D0310BA0DBB0D3A08A8003B0839
:10016800A9000230AE000030AF00BA280230831276
:100178002E062F04031DC128C228E8284808803A03
:10018800DF0080305F02031DCB2804304702031CC8
:10019800CE28CF28E82883122A082804A8002B088C
:1001A8002904A9002908BB002808BA000310BA0DC1
:1001B800BB0D0310BA0DBB0D3A08A8003B08A900F7
:1001C8000330AE000030AF00033083122E062F0438
:1001D800031DEF28F0280A294808803ADF008030FC
:1001E8005F02031DF928043047020318FC28FD2884
:1001F8000A2983122A082804A8002B082904A90020
:100208000430AE000030AF000A290A2904308312F6
:100218002E062F04031D11291229D0292C08BA00F3
:100228003A07203E8400280883138000840A29089E
:100238008000AE01AF01AE292C08BA003A07203E73
:1002480084000008BB00840A0008BC002C08BD001C
:100258003D07243E84000008BE00840A0008BF0051
:100268003F08803AC0003C08803A4002031D3E29FE
:100278003B083E02031841294229602983122C08B1
:10028800BA003A07243E840083130008BB00840A9E
:100298000008BC003B08013EBD003C080318013EB5
:1002A800003EBE002C08BF003F07243E84003D08E6
:1002B8008000840A3E08800083122C08BA003A079E
:1002C800243E840083130008BB00840A0008BC0095
:1002D8002C08BD003D07203E84000008BE00840AAB
:1002E8000008BF003F08803AC0003C08803A40023E
:1002F800031D80293B083E02031883298429A3296A
:1003080083122C08BA003A07243E8400831300089D
:10031800BB00840A0008BC003B08FF3EBD003C0847
:100328000318013EFF3EBE002C08BF003F07243ED5
:1003380084003D088000840A3E088000A3294130DB
:100348008312BB00EE30BA00BA0BA829BB0BA82950
:100358000000AE2983122C08BA003A07203E840018
:1003680083130008BB00840A0008BC002C08BD00E9
:100378003D07243E84000008BE00840A0008BF0030
:100388003C083F06031DCA293B083E06031DCD292C
:10039800CE292029D029D0290D30BB00FB30BA0046
:1003A800BA0BD429BB0BD429D929412841280D28B7
:1003B8000B1DDF29E0293A2A0B110130B207031877
:1003C800B30A0030B30745088100B001B101212A02
:1003D80083123008B4003407243E840083130008D5
:1003E800B500840A0008B60033083606031DFE2946
:1003F80032083506031D012A022A1A2A300AB400D7
:100408004208B6004108B5000C2A0310B50DB60D18
:10041800B40B092A3508C1003608C2000508410492
:1004280085000130C1000030C2001A2A0130B0072F
:100438000318B10A0030B107212A3108803AB40004
:100448004408803A3402031D2B2A43083002031C57
:100458002E2A2F2AEC29302A23308312320633041D
:10046800031D372A382A3A2A8B123A2A8B1C3D2A2E
:100478003E2A492A8B1005108510450881000B116A
:100488008B16B201B301492A492A39088A0038086B
:100498008400370E8300DE0E5E0E090064008001C2
:1004A800840A0406031900340406532A013400346C
:0804B80002340034F834003472
:02400E00D431AB
:00000001FF
